:020000040800F2
:1000000000000820E52300083524000835240008F6
:1000100035240008352400083524000800000000BD
:10002000000000000000000000000000352400086F
:10003000352400080000000035240008452300088E
:10004000352400083524000835240008352400082C
:10005000352400083524000835240008352400081C
:10006000352400083524000835240008352400080C
:1000700035240008352400083524000835240008FC
:1000800035240008352400083524000835240008EC
:1000900035240008352400083524000835240008DC
:1000A00035240008352400083524000835240008CC
:1000B00035240008352400083524000835240008BC
:1000C00035240008352400083524000835240008AC
:1000D000352400083524000835240008352400089C
:1000E000352400083524000835240008352400088C
:1000F000352400083524000835240008352400087C
:10010000352400083524000835240008352400086B
:10011000352400083524000835240008352400085B
:10012000352400083524000835240008352400084B
:10013000352400083524000835240008352400083B
:10014000352400083524000835240008352400082B
:10015000352400083524000835240008352400081B
:10016000352400083524000835240008352400080B
:10017000352400083524000835240008000000005C
:1001800035240008352400083524000835240008EB
:1001900035240008352400083524000835240008DB
:1001A000000000000000000035240008352400088D
:1001B00035240008352400083524000835240008BB
:1001C000352400083524000800000000352400080C
:1001D000352400083524000835240008352400089B
:1001E000352400083524000835240008352400088B
:0801F0000000000035240008A6
:1001F80010B5054C237833B9044B13B10448AFF359
:1002080000800123237010BDD001022000000000EF
:10021800042D000808B5034B1BB103490348AFF38D
:10022800008008BD00000000D4010220042D000851
:1002380080B400AF064B1B781A46064B1B68134464
:10024800044A136000BFBD465DF8047B704700BFD9
:1002580000000220FC01022080B400AF034B1B68A1
:100268001846BD465DF8047B704700BFFC010220BC
:1002780080B584B000AF7860FFF7EEFFB8607B68A8
:10028800FB60FB68B3F1FF3F05D0094B1B781A46AA
:10029800FB681344FB6000BFFFF7DEFF0246BB6844
:1002A800D21AFB689A42F7D300BF1037BD4680BD0B
:1002B8000000022080B400AF044BDB681B0A03F087
:1002C80007031846BD465DF8047B704700ED00E063
:1002D80080B483B000AF0346FB71094997F9073032
:1002E8005B09FA7902F01F02012000FA02F241F8D4
:1002F800232000BF0C37BD465DF8047B704700BF64
:1003080000E100E080B483B000AF03463960FB71C0
:1003180097F90730002B0BDA0D49FB7903F00F032F
:10032800043B3A68D2B21201D2B20B441A7609E001
:10033800084997F907303A68D2B21201D2B20B4491
:1003480083F8002300BF0C37BD465DF8047B704777
:1003580000ED00E000E100E080B489B000AFF86093
:10036800B9607A60FB6803F00703FB61FB69C3F1BE
:100378000703042B28BF0423BB61FB690433062B46
:1003880002D9FB69033B00E000237B610122BB69C2
:1003980002FA03F35A1EBB681A407B699A4001218E
:1003A8007B6901FA03F3591E7B680B401343184617
:1003B8002437BD465DF8047B704780B586B000AF32
:1003C8000346B9607A60FB7300237B61FFF772FF15
:1003D80078617A68B9687869FFF7BEFF024697F9CD
:1003E8000F3011461846FFF78DFF00BF1837BD467E
:1003F80080BD80B582B000AF0346FB7197F9073026
:100408001846FFF765FF00BF0837BD4680BD80B5B9
:1004180000AF00F002F800BF80BD80B400AF00BF9D
:10042800BD465DF8047B704780B489B000AF786042
:1004380039600023FB6100237B6100233B610023BB
:10044800BB610023FB6175E10122FB6902FA03F33A
:100458007B613B681A687B6913403B613A697B6939
:100468009A4240F064813B685B68022B03D03B688A
:100478005B68122B23D1FB69DA087B68083253F8D2
:100488002230BB61FB6903F007039B000F2202FACD
:1004980003F3DB43BA691340BB613B681A69FB6924
:1004A80003F007039B0002FA03F3BA691343BB6125
:1004B800FB69DA087B680832B96943F822107B685F
:1004C8001B68BB61FB695B00032202FA03F3DB4391
:1004D800BA691340BB613B685B6803F00302FB69C0
:1004E8005B0002FA03F3BA691343BB617B68BA691C
:1004F8001A603B685B68012B0BD03B685B68022B7A
:1005080007D03B685B68112B03D03B685B68122BF4
:1005180030D17B689B68BB61FB695B00032202FAF0
:1005280003F3DB43BA691340BB613B68DA68FB69D4
:100538005B0002FA03F3BA691343BB617B68BA69CB
:100548009A607B685B68BB610122FB6902FA03F36E
:10055800DB43BA691340BB613B685B681B0903F066
:100568000102FB6902FA03F3BA691343BB617B68B2
:10057800BA695A607B68DB68BB61FB695B00032270
:1005880002FA03F3DB43BA691340BB613B689A681C
:10059800FB695B0002FA03F3BA691343BB617B682A
:1005A800BA69DA603B685B6803F08053002B00F09F
:1005B800BE80654A644B5B6C43F480435364624B72
:1005C8005B6C03F48043FB60FB68604AFB699B0833
:1005D800023352F82330BB61FB6903F003039B002D
:1005E8000F2202FA03F3DB43BA691340BB617B684D
:1005F800574A934237D07B68564A934231D07B683A
:10060800554A93422BD07B68544A934225D07B6845
:10061800534A93421FD07B68524A934219D07B6851
:10062800514A934213D07B68504A93420DD07B685D
:100638004F4A934207D07B684E4A934201D109231F
:1006480012E00A2310E008230EE007230CE006233B
:100658000AE0052308E0042306E0032304E002235C
:1006680002E0012300E00023FA6902F0030292008D
:100678009340BA691343BB613449FB699B08023351
:10068800BA6941F823203C4B1B68BB613B69DB43DB
:10069800BA691340BB613B685B6803F48033002B85
:1006A80003D0BA693B691343BB61334ABB69136022
:1006B800314B5B68BB613B69DB43BA691340BB6183
:1006C8003B685B6803F40033002B03D0BA693B69CD
:1006D8001343BB61284ABB695360274B9B68BB61C6
:1006E8003B69DB43BA691340BB613B685B6803F451
:1006F8008013002B03D0BA693B691343BB611E4AC0
:10070800BB6993601C4BDB68BB613B69DB43BA691F
:100718001340BB613B685B6803F40013002B03D0F4
:10072800BA693B691343BB61134ABB69D360FB6970
:100738000133FB61FB690F2B7FF686AE00BF2437C0
:10074800BD465DF8047B7047003802400038014020
:10075800000002400004024000080240000C024071
:10076800001002400014024000180240001C024021
:100778000020024000240240003C0140F0B58FB048
:100788000AAF78600023FB607B68002B01D101234E
:10079800FEE07B68032283F8B923786801F028FF1C
:1007A8007B681B68184600F05AFB7B681B683B6037
:1007B8007E686D4606F110040FCC0FC50FCC0FC52F
:1007C80094E8030085E80300331D0ECB386800F079
:1007D800E3FA7B681B680021184600F051FB0023F0
:1007E800FB604CE07968FA681346DB009B1A9B00B3
:1007F8000B44393301221A70FB68D8B27968FA6859
:100808001346DB009B1A9B000B44383302461A70D0
:10081800FB6898B27968FA681346DB009B1A9B005C
:100828000B443E3302461A807968FA681346DB00A7
:100838009B1A9B000B443B3300221A707968FA68B4
:100848001346DB009B1A9B000B44403300221A60BE
:100858007968FA681346DB009B1A9B000B44443303
:1008680000221A607968FA681346DB009B1A9B001D
:100878000B444C3300221A60FB680133FB60FB68B1
:100888000E2BAFD90023FB605AE07968FA6813464B
:10089800DB009B1A9B000B4403F2F91300221A7029
:1008A800FB68D8B27968FA681346DB009B1A9B008C
:1008B8000B4403F5FC7302461A70FB6898B279681A
:1008C800FA681346DB009B1A9B000B443E33024632
:1008D8001A807968FA681346DB009B1A9B000B4460
:1008E80003F2FB1300221A707968FA681346DB00DA
:1008F8009B1A9B000B4403F5007300221A60796869
:10090800FA681346DB009B1A9B000B4403F501733E
:1009180000221A607968FA681346DB009B1A9B006C
:100928000B4403F5037300221A607B681A68FB689E
:1009380040339B00134400225A60FB680133FB607C
:10094800FB680E2BA1D97B681B683B607E686D46EF
:1009580006F110040FCC0FC50FCC0FC594E80300A7
:1009680085E80300331D0ECB386800F0B1FA7B68C8
:10097800012283F8B9237B685B6A012B02D178686E
:1009880000F0E6F97B681B68184601F042F900237D
:1009980018461437BD46F0BD80B582B000AF786008
:1009A8007B6893F8B833012B01D1022312E07B68EE
:1009B800012283F8B8237B681B68184601F012F9F6
:1009C8007B681B68184600F039FA7B68002283F8B8
:1009D800B823002318460837BD4680BD80B584B0CB
:1009E80000AF7860084611461A460346FB700B466E
:1009F8003B801346BB700023FB7297F90330002B32
:100A08000BDAFB7803F07F021346DB009B1A9B008E
:100A180038337A681344FB600BE0FB7803F07F02FD
:100A28001346DB009B1A9B0003F5FC737A6813449A
:100A3800FB60FB7803F07F03DAB2FB681A7097F962
:100A48000330DBB2DB09DBB21A46FB685A703A881E
:100A5800FB689A60FB68BA78DA70FB685B78002BF1
:100A680004D0FB681B789AB2FB68DA80BB78022B4B
:100A780002D1FB6800221A717B6893F8B833012B06
:100A880001D102230EE07B68012283F8B8237B683A
:100A98001B68F968184600F0C9FB7B68002283F8D8
:100AA800B823FB7A18461037BD4680BD80B584B0A0
:100AB80000AF78600B46FB7097F90330002B0BDA18
:100AC800FB7803F07F021346DB009B1A9B00383348
:100AD8007A681344FB600BE0FB7803F07F0213464F
:100AE800DB009B1A9B0003F5FC737A681344FB60D8
:100AF800FB7803F07F03DAB2FB681A7097F90330CA
:100B0800DBB2DB09DBB21A46FB685A707B6893F8E4
:100B1800B833012B01D102230EE07B68012283F850
:100B2800B8237B681B68F968184600F007FC7B68E7
:100B3800002283F8B823002318461037BD4680BD2D
:100B480080B586B000AFF8607A603B600B46FB72F8
:100B5800FB7A03F07F021346DB009B1A9B0003F528
:100B6800FC73FA6813447B617B697A68DA607B6995
:100B78003A685A617B6900229A617B6900225A703F
:100B8800FB7A03F07F03DAB27B691A70FB681B6992
:100B9800012B02D17A687B691A61FB7A03F07F0323
:100BA800002B09D1FB681868FB681B69DBB21A4681
:100BB800796900F083FE08E0FB681868FB681B6928
:100BC800DBB21A46796900F035FC0023184618375D
:100BD800BD4680BD80B483B000AF78600B46FB7023
:100BE800FB7803F00F0279681346DB009B1A9B0021
:100BF8000B4403F504731B689BB218460C37BD46BB
:100C08005DF8047B704780B586B000AFF8607A6005
:100C18003B600B46FB72FB7A03F07F021346DB0056
:100C28009B1A9B003833FA6813447B617B697A68A6
:100C3800DA607B693A685A617B6900229A617B694C
:100C480001225A70FB7A03F07F03DAB27B691A70CB
:100C5800FB681B69012B02D17A687B691A61FB7AF0
:100C680003F07F03002B09D1FB681868FB681B6938
:100C7800DBB21A46796900F021FE08E0FB681868C3
:100C8800FB681B69DBB21A46796900F0D3FB0023C5
:100C980018461837BD4680BD80B485B000AF78606F
:100CA8000B46FB7013463B800023FB730023BB609D
:100CB8007B681B685B6ABB60FB78002B07D17B688D
:100CC8001B683A881104BA680A439A6228E07B686C
:100CD8001B689B6A1B0CBA681344BB600023FB7338
:100CE8000DE07B681A68FB7B40339B0013445B680C
:100CF8001B0CBA681344BB60FB7B0133FB73FA7BA4
:100D0800FB78013B9A42ECDB7B681968FB78013B76
:100D18003A881004BA68024340339B000B445A6077
:100D2800002318461437BD465DF8047B704780B42D
:100D380083B000AF78600B467B807B681B687A883D
:100D48005A62002318460C37BD465DF8047B70478D
:100D580080B485B000AF78607B681B68FB607B68F7
:100D68000122C3F8F4237B68002283F8EC23FB6894
:100D78009B6943F00062FB689A61FB685A6D054BFA
:100D88001343FA685365002318461437BD465DF8C7
:100D9800047B70470300001084B080B582B000AFB8
:100DA800786007F1140080E80E00BB6A012B1ED1A1
:100DB8007B689B6B23F480327B689A637B68DA6874
:100DC8001D4B13407A68D3607B68DB6823F44012BC
:100DD8007B68DA607B6C012B05D17B68DB6843F4A8
:100DE80080127B68DA60786800F02AFF0CE07B6884
:100DF800DB6843F040027B68DA60786800F020FF27
:100E08007B684FF480329A633B6A012B0BD17B6875
:100E18009B6843F008027B689A607B689B6843F094
:100E280020027B689A60002318460837BD46BDE853
:100E3800804004B0704700BFBFFFBDFF80B483B0DF
:100E480000AF78607B689B6843F001027B689A601A
:100E5800002318460C37BD465DF8047B704780B404
:100E680083B000AF78607B689B6823F001027B68E1
:100E78009A60002318460C37BD465DF8047B70471E
:100E880080B582B000AF78600B46FB707B68DB688A
:100E980023F0C0427B68DA60FB78012B06D17B68BF
:100EA800DB6843F000527B68DA6008E0FB78002BCF
:100EB80005D17B68DB6843F080427B68DA603220CA
:100EC800FFF7D6F9002318460837BD4680BD000055
:100ED80084B080B584B000AF786007F11C0080E86A
:100EE8000E000023FB607B689B6B43F400127B6859
:100EF8009A637B6C002B11D17B689B6B23F40012E7
:100F08007B689A637B681B6843F040027B681A60C1
:100F18007B681B6843F080027B681A607B6803F576
:100F280060631A46002313607B6803F500631A4662
:100F38007B6803F500631B6813603B6B012B0CD1C6
:100F48007B6A002B04D10021786800F057F918E07B
:100F58000121786800F052F913E03B6B032B0CD1A8
:100F68007B6A002B04D10021786800F047F908E07B
:100F78000121786800F042F903E00321786800F065
:100F88003DF91021786800F0F1F8786800F014F95C
:100F98007B6803F500631A46002313617B6803F539
:100FA80000631A46002353617B6803F500631A4601
:100FB8004FF0FF3393617B6803F500631A46002303
:100FC800D3610023FB6034E0FB685A017B6813445B
:100FD80003F510631B6803F00043B3F1004F0AD117
:100FE800FB685A017B68134403F510631A464FF0F7
:100FF8009043136008E0FB685A017B68134403F5CB
:1010080010631A4600231360FB685A017B68134477
:1010180003F510631A4600231361FB685A017B68C5
:10102800134403F510631A46FF239360FB680133EA
:10103800FB60FA69FB689A42C6D80023FB6034E07B
:10104800FB685A017B68134403F530631B6803F09F
:101058000043B3F1004F0AD1FB685A017B6813447F
:1010680003F530631A464FF09043136008E0FB68BD
:101078005A017B68134403F530631A460023136052
:10108800FB685A017B68134403F530631A46002352
:101098001361FB685A017B68134403F530631A46F1
:1010A800FF239360FB680133FB60FA69FB689A428F
:1010B800C6D87B6803F500631A467B6803F50063AE
:1010C8001B6923F480731361BB6A012B15D17B68FC
:1010D80003F500631A46214B13637B6803F500632D
:1010E80019467B6803F500631A6B1D4B13430B63AA
:1010F8007B6803F500631B6BFB607B6800229A61C9
:101108007B686FF080425A61BB6A002B05D17B680F
:101118009B6943F010027B689A617B689A69114B5E
:1011280013437A6893617B6B002B05D07B689B69BE
:1011380043F008027B689A617B6C012B05D17B68C0
:101148009A69094B13437A6893610023184610374C
:10115800BD46BDE8804004B0704700BF0001800074
:101168000300010000383C800400004080B485B0D2
:1011780000AF786039600023FB603B689B0143F057
:1011880020027B681A61FB680133FB60FB68094A2F
:10119800934201D9032306E07B681B6903F020030F
:1011A800202BF0D0002318461437BD465DF8047B89
:1011B800704700BF400D030080B485B000AF786071
:1011C8000023FB607B6810221A61FB680133FB6017
:1011D800FB68094A934201D9032306E07B681B692F
:1011E80003F01003102BF0D0002318461437BD4627
:1011F8005DF8047B704700BF400D030080B483B0E6
:1012080000AF78600B46FB707B6803F500631946F6
:101218007B6803F500631A68FB7813430B600023AF
:1012280018460C37BD465DF8047B704780B483B020
:1012380000AF786039603B685B78012B3CD17B68F4
:1012480003F5006319467B6803F50063DA693B68B8
:101258001B781846012383409BB21343CB613B683C
:101268001B785A017B68134403F510631B6803F469
:101278000043002B58D13B681B785A017B68134404
:1012880003F5106318463B681B785A017B681344C2
:1012980003F510631A683B689B68C3F30A0339684F
:1012A800C97889040B433968097889050B431A43BF
:1012B800214B1343036037E07B6803F5006319464D
:1012C8007B6803F50063DB693A68127810460122EF
:1012D800824012041343CB613B681B785A017B6838
:1012E800134403F530631B6803F40043002B1BD140
:1012F8003B681B785A017B68134403F53063184632
:101308003B681B785A017B68134403F530631A68FD
:101318003B689B68C3F30A033968C97889040B439F
:101328001A43054B13430360002318460C37BD4688
:101338005DF8047B704700BF0080001080B483B064
:1013480000AF786039603B685B78012B35D17B68EA
:1013580003F5006319467B6803F50063DA6B3B68A5
:101368001B781846012383409BB2DB431340CB63B1
:101378007B6803F5006319467B6803F50063DA6947
:101388003B681B781846012383409BB2DB4313401C
:10139800CB613B681B785A017B68134403F51063E3
:1013A80019463B681B785A017B68134403F51063A0
:1013B8001B6823F400430B6034E07B6803F500638B
:1013C80019467B6803F50063DA6B3B681B7818469F
:1013D800012383401B04DB431340CB637B6803F585
:1013E800006319467B6803F50063DA693B681B787C
:1013F8001846012383401B04DB431340CB613B6841
:101408001B785A017B68134403F5306319463B681F
:101418001B785A017B68134403F530631B6823F477
:1014280000430B60002318460C37BD465DF8047B6B
:101438007047000080B588B002AFF860B960134605
:10144800FB710023FB82BB685B78012B40F048816D
:10145800BB685B69002B39D1BB681B785A01FB68F4
:10146800134403F510631946BB681B785A01FB68DF
:10147800134403F510631A69964B13400B61BB685C
:101488001B785A01FB68134403F510631946BB68BF
:101498001B785A01FB68134403F510631B6943F476
:1014A80000230B61BB681B785A01FB68134403F5E2
:1014B80010631946BB681B785A01FB68134403F58F
:1014C80010631A69844B13400B6184E0BB681B7876
:1014D8005A01FB68134403F510631946BB681B786F
:1014E8005A01FB68134403F510631A697A4B1340D9
:1014F8000B61BB681B785A01FB68134403F5106342
:101508001946BB681B785A01FB68134403F510633E
:101518001A69704B13400B61BB681B785A01FB6852
:10152800134403F510631846BB681B785A01FB681F
:10153800134403F510631A69BB685969BB689B6853
:101548000B44591EBB689B68B1FBF3F3D904634B8A
:101558000B4013430361BB681B785A01FB681344B3
:1015680003F510631946BB681B785A01FB681344DE
:1015780003F510631A69BB685B69C3F3120313436D
:101588000B61BB68DB78012B25D1BB681B785A013E
:10159800FB68134403F510631946BB681B785A01AE
:1015A800FB68134403F510631B6923F0C0430B6108
:1015B800BB681B785A01FB68134403F5106319468E
:1015C800BB681B785A01FB68134403F510631B6959
:1015D80043F000530B61FB79012B0BD1BB681B78DF
:1015E8005A01FB68134403F510631A46BB681B696C
:1015F800536116E0BB68DB78012B12D0BB685B69CE
:10160800002B0ED0FB6803F500631946FB6803F551
:1016180000635B6BBA68127810460122824013435C
:101628004B63BB68DB78012B2ED1FB6803F50063A5
:101638009B6803F48073002B13D1BB681B785A0195
:10164800FB68134403F510631946BB681B785A01FD
:10165800FB68134403F510631B6843F000530B60E9
:1016680012E0BB681B785A01FB68134403F510634A
:101678001946BB681B785A01FB68134403F51063CD
:101688001B6843F080530B60BB681B785A01FB68EA
:10169800134403F510631946BB681B785A01FB68AD
:1016A800134403F510631B6843F004430B60BB68E5
:1016B800DB78012B40F0F780BB68D968BB681A78E3
:1016C800BB685B6998B2FB7900930346F86800F041
:1016D80051FAE8E0FFFF07E00000F8FF0000F81FFC
:1016E800BB681B785A01FB68134403F5306319463D
:1016F800BB681B785A01FB68134403F530631A6909
:101708006B4B13400B61BB681B785A01FB68134491
:1017180003F530631946BB681B785A01FB6813440C
:1017280003F530631A69634B13400B61BB685B694F
:10173800002B29D1BB681B785A01FB68134403F5B9
:1017480030631946BB681B785A01FB68134403F5DC
:1017580030631A69BB689B68C3F3120313430B61B8
:10176800BB681B785A01FB68134403F530631946BC
:10177800BB681B785A01FB68134403F530631B6987
:1017880043F400230B613AE0BB685A69BB689B6865
:1017980013445A1EBB689B68B2FBF3F3FB82BB6819
:1017A8001B785A01FB68134403F530631946BB687C
:1017B8001B785A01FB68134403F530631A69FB8AE6
:1017C800DB0418463C4B034013430B61BB681B7892
:1017D8005A01FB68134403F530631846BB681B784D
:1017E8005A01FB68134403F530631A69BB689B68A8
:1017F800F98A01FB03F3C3F3120313430361FB7973
:10180800012B0AD1BB681B785A01FB68134403F506
:1018180030631A46BB68DB685361BB68DB78012B11
:101828002ED1FB6803F500639B6803F48073002BDB
:1018380013D1BB681B785A01FB68134403F5306366
:101848001946BB681B785A01FB68134403F53063DB
:101858001B6843F000530B6012E0BB681B785A0109
:10186800FB68134403F530631946BB681B785A01BB
:10187800FB68134403F530631B6843F080530B6027
:10188800BB681B785A01FB68134403F5306319469B
:10189800BB681B785A01FB68134403F530631B6867
:1018A80043F004430B60002318461837BD4680BD3B
:1018B8000000F8FFFFFF07E00000F81F80B485B0C4
:1018C80000AFF860B9601346FB71BB685B78012B09
:1018D80040F0CD80BB685B69002B39D1BB681B78B1
:1018E8005A01FB68134403F510631946BB681B785B
:1018F8005A01FB68134403F510631A699B4B1340A4
:101908000B61BB681B785A01FB68134403F510632D
:101918001946BB681B785A01FB68134403F510632A
:101928001B6943F400230B61BB681B785A01FB68F1
:10193800134403F510631946BB681B785A01FB680A
:10194800134403F510631A69894B13400B6158E07F
:10195800BB681B785A01FB68134403F510631946EA
:10196800BB681B785A01FB68134403F510631A69B6
:101978007F4B13400B61BB681B785A01FB6813440B
:1019880003F510631946BB681B785A01FB681344BA
:1019980003F510631A69754B13400B61BB685A69EC
:1019A800BB689B689A4203D9BB689A68BB685A614E
:1019B800BB681B785A01FB68134403F5106319468A
:1019C800BB681B785A01FB68134403F510631B6955
:1019D80043F400230B61BB681B785A01FB6813446E
:1019E80003F510631946BB681B785A01FB6813445A
:1019F80003F510631A69BB685B69C3F312031343E9
:101A08000B61FB79012B0BD1BB681B785A01FB6872
:101A1800134403F510631A46BB681B69536112E04F
:101A2800BB685B69002B0ED0FB6803F500631946A1
:101A3800FB6803F500635A6BBB681B7818460123E3
:101A4800834013434B63BB681B785A01FB681344FC
:101A580003F510631946BB681B785A01FB681344E9
:101A680003F510631B6843F004430B6077E0BB6821
:101A78001B785A01FB68134403F530631946BB68A9
:101A88001B785A01FB68134403F530631A69384B15
:101A980013400B61BB681B785A01FB68134403F5BC
:101AA80030631946BB681B785A01FB68134403F579
:101AB80030631A692D4B13400B61BB685B69002BBF
:101AC80003D0BB689A68BB685A61BB681B785A0127
:101AD800FB68134403F530631946BB681B785A0149
:101AE800FB68134403F530631B6943F400230B615F
:101AF800BB681B785A01FB68134403F53063194629
:101B0800BB681B785A01FB68134403F530631A69F4
:101B1800BB689B68C3F3120313430B61FB79012B6A
:101B28000AD1BB681B785A01FB68134403F530637C
:101B38001A46BB68DB685361BB681B785A01FB68AF
:101B4800134403F530631946BB681B785A01FB68D8
:101B5800134403F530631B6843F004430B60002310
:101B680018461437BD465DF8047B7047FFFF07E051
:101B78000000F8FF80B487B000AFF860B960114684
:101B88001A460B46FB711346BB8000233B610023BA
:101B98007B6197F82030002B1DD1BB880333002BC5
:101BA80000DA03339B103B6100237B610FE0FB7974
:101BB8001A03FB68134403F580531A46BB681B6875
:101BC80013607B6901337B61BB680433BB607A694E
:101BD8003B699A42EBD3002318461C37BD465DF893
:101BE800047B704780B582B000AF78607B6803F5EE
:101BF80000631A467B6803F500635B6823F0020301
:101C080053600320FEF734FB002318460837BD460F
:101C180080BD80B582B000AF78607B6803F5006353
:101C28001A467B6803F500635B6843F00203536060
:101C38000320FEF71DFB002318460837BD4680BD6C
:101C480080B485B000AF78600023FB60FB68013387
:101C5800FB60FB68134A934201D903231BE07B68AE
:101C68001B69002BF2DA0023FB607B681B6943F0D9
:101C780001027B681A61FB680133FB60FB68094A53
:101C8800934201D9032306E07B681B6903F0010333
:101C9800012BF0D0002318461437BD465DF8047BAD
:101CA800704700BF400D030080B584B000AF786076
:101CB8000B46FB700023FB737B681B7C002B0ED14B
:101CC8004FF4007302228121786800F059FD4FF427
:101CD800007302220121786800F052FD0BE04023D6
:101CE80002228121786800F04BFD40230222012165
:101CF800786800F045FD082303228221786800F007
:101D08003FFD4FF4077000F01DFF03461A467B683D
:101D1800C3F818227B68D3F81832002B02D10123AC
:101D2800FB7326E07B68D3F81832BB607B68D3F876
:101D38001C321B689847BB680022C3F81422BB6892
:101D48000022C3F818227B681B7C002B09D1BB68D2
:101D5800D3F804224FF400730121786800F0BEFD27
:101D680007E0BB68D3F8042240230121786800F01B
:101D7800B5FDFB7B18461037BD4680BD80B584B0E5
:101D880000AF78600B46FB700023FB7381217868F5
:101D980000F034FD0121786800F030FD8221786878
:101DA80000F02CFD7B68D3F81832002B0ED07B682E
:101DB800D3F81C325B6898477B68D3F8183218460A
:101DC80000F0C8FE7B680022C3F81822FB7B184687
:101DD8001037BD4680BD000080B584B000AF786084
:101DE80039607B68D3F81832FB603B681B7803F0D6
:101DF8006003002B3AD0202B00D043E03B68DB88FF
:101E0800002B29D03B681B785BB2002B11DA7B686A
:101E1800D3F81C329B683A685078F9683A68D288D7
:101E28009847F9683B68DB881A46786800F0FDF93E
:101E380029E03B685A78FB6883F800223B68DB8816
:101E4800DAB2FB6883F80122F9683B68DB881A4636
:101E5800786800F006FA16E07B68D3F81C329B68B5
:101E68003A6850780022396898470CE03B685B78FC
:101E78000A2B01D00B2B05E001220549786800F0F8
:101E8800D4F900BF00BF002318461037BD4680BDF7
:101E9800EC01022080B485B000AF78600B46FB707F
:101EA8007B68D3F81832FB607B68D3F81832002BB4
:101EB80005D0FB680022C3F81422002300E00223A7
:101EC80018461437BD465DF8047B704780B584B06A
:101ED80000AF78600B46FB707B68D3F81832FB6064
:101EE800FB781946786800F033FD0246FB68C3F8B2
:101EF8000C227B68D3F81832002B0DD07B68D3F8FE
:101F08001C32DB68FA68D2F80402FA6802F5037238
:101F180011469847002300E0022318461037BD46B3
:101F280080BD80B584B000AF78607B68D3F8183284
:101F3800FB607B68D3F81C32002B15D0FB6893F844
:101F48000032FF2B10D07B68D3F81C329B68FA68EC
:101F580092F80002F968FA6892F8012292B298475A
:101F6800FB68FF2283F80022002318461037BD467D
:101F780080BD000080B483B000AF78607B684322E6
:101F88001A80034B18460C37BD465DF8047B704732
:101F98008C00022080B483B000AF78607B68432255
:101FA8001A80034B18460C37BD465DF8047B704712
:101FB8004800022080B483B000AF78607B68432279
:101FC8001A80034B18460C37BD465DF8047B7047F2
:101FD800D000022080B483B000AF78607B680A220A
:101FE8001A80034B18460C37BD465DF8047B7047D2
:101FF8000400022080B485B000AF78603960022305
:10200800FB733B68002B05D07B683A68C3F81C2239
:102018000023FB73FB7B18461437BD465DF8047B31
:10202800704780B487B000AFF860B9601346FB8092
:10203800FB68D3F818327B617B69BA68C3F8082259
:10204800FA887B69C3F81022002318461C37BD465E
:102058005DF8047B704780B485B000AF7860396064
:102068007B68D3F81832FB60FB683A68C3F804222F
:10207800002318461437BD465DF8047B704780B5C9
:1020880084B000AF78607B68D3F81832FB607B6857
:10209800D3F81832002B17D07B681B7C002B09D192
:1020A800FB68D3F804224FF400730121786800F02C
:1020B80015FC07E0FB68D3F8042240230121786867
:1020C80000F00CFC002300E0022318461037BD4640
:1020D80080BD80B584B000AFF860B9601346FB716D
:1020E800FB68002B01D102231AE0FB68D3F81432F5
:1020F800002B03D0FB680022C3F81422BB68002B16
:1021080003D0FB68BA68C3F81022FB68012283F881
:10211800FC21FB68FA791A70F86800F0ABFA002322
:1021280018461037BD4680BD80B485B000AF7860D2
:1021380039600023FB733B68002B06D07B683A6844
:10214800C3F814220023FB7301E00223FB73FB7B1B
:1021580018461437BD465DF8047B704780B582B0D9
:1021680000AF7860786800F0D9FA0023184608377D
:10217800BD4680BD80B586B000AFF860B9607A60B2
:102188000023FB75FB68002B33D0F86800F035F8A6
:10219800034601339BB25B009AB27B681A80FB7DD1
:1021A8005A1CFA751A46BB6813447A681288D2B268
:1021B8001A70FB7D5A1CFA751A46BB681344032231
:1021C8001A7012E0FB7D5A1CFA751A46BB681A444D
:1021D800FB68591CF9601B781370FB7D5A1CFA7553
:1021E8001A46BB68134400221A70FB681B78002B40
:1021F800E8D100BF1837BD4680BD80B485B000AFB8
:1022080078600023FB7305E0FB7B0133FB737B687D
:1022180001337B607B681B78002BF5D1FB7B18466C
:102228001437BD465DF8047B704780B584B000AFB5
:10223800F860B9601346FB80FB680222C3F8F421FA
:10224800FA88FB689A61FA88FB68DA61FB88BA68E1
:102258000021F86800F008FB002318461037BD4637
:1022680080BD80B584B000AFF860B9601346FB80CC
:10227800FB680322C3F8F421FA88FB68C3F8082135
:10228800FA88FB68C3F80C21FB88BA680021F86853
:1022980000F024FB002318461037BD4680BD00001F
:1022A80080B483B000AF03463960FB7197F90730FB
:1022B800002B0CDA0E4997F9073003F00F03043BA3
:1022C8003A68D2B21201D2B20B441A7609E009492F
:1022D80097F907303A68D2B21201D2B20B4483F8A8
:1022E800002300BF0C37BD465DF8047B704700BF74
:1022F80000ED00E000E100E080B582B000AF78605A
:102308007B68013BB3F1807F01D301230FE00A4AC8
:102318007B68013B53600F214FF0FF30FFF7C0FF90
:10232800054B00229A60044B07221A6000231846C6
:102338000837BD4680BD00BF10E000E080B500AFA3
:10234800FDF776FFFEF763F800BF80BD80B582B069
:1023580000AF1B4B04221A631A4B1B681A4AA2FBD4
:1023680003239B091846FFF7C7FF184B7B607B6860
:1023780015221A607B6807225A607B680022DA609F
:102388007B6800229A607B6807229A617B684FF419
:1023980080329A614FF4FA70FDF76AFF7B68072272
:1023A8009A617B684FF400329A6100F077F87B6895
:1023B80007229A617B684FF480229A61FEE700BF8A
:1023C8000038024014010220D34D62100008024078
:1023D80080B483B000AF78603960FEE7DFF834D0AE
:1023E800002103E00C4B5B58435004310B480C4B65
:1023F80042189A42F6D30B4A02E0002342F8043B03
:10240800094B9A42F9D300F013F800F077FBFFF775
:102418009DFF704700000820902D00080000022052
:10242800D0010220D0010220281A0220FEE7000075
:1024380080B400AF154A154BD3F8883043F47003C5
:10244800C2F88830124A124B1B6843F0010313602C
:102458000F4B00229A600E490D4B1A680D4B134022
:102468000B600B4B0C4A5A60094A094B1B6823F452
:1024780080231360064B0022DA60044B4FF00062A1
:102488009A6000BFBD465DF8047B704700ED00E030
:1024980000380240FFFFF6FE1030002480B500AF80
:1024A800002208490848FFF714FE08490648FFF7C4
:1024B8003BFE07490448FFF79DFD0348FFF74EFE22
:1024C80000BF80BD28010220000202201000022067
:1024D8001801022080B500AF002205490548FFF722
:1024E800A0FD05490348FFF7B6FD0023184680BD47
:1024F800240C0220000202202404022080B400AF31
:1025080000231846BD465DF8047B704780B483B04D
:1025180000AF03463960FB711346BB80FB79232B60
:102528004AD801A252F823F0C1250008C1250008A5
:10253800C1250008C1250008C1250008C1250008DB
:10254800C1250008C1250008C1250008C1250008CB
:10255800C1250008C1250008C1250008C1250008BB
:10256800C1250008C1250008C1250008C1250008AB
:10257800C1250008C1250008C1250008C12500089B
:10258800C1250008C1250008C1250008C12500088B
:10259800C1250008C1250008C1250008C12500087B
:1025A800C1250008C1250008C1250008C12500086B
:1025B800C1250008C125000800BF002318460C37B4
:1025C800BD465DF8047B704780B582B000AF786087
:1025D800396079680548FFF73EFD0448FFF74FFD6D
:1025E800002318460837BD4680BD00BF0002022000
:1025F80080B58AB000AF78607B681B68B3F1A04FE4
:1026080030D14FF4C0537B610223BB610023FB61CF
:1026180003233B620A237B6207F11403194613481C
:10262800FDF702FF124A124B5B6B43F080035363C2
:102638000F4B5B6B03F080033B613B690C4A0C4B0F
:102648005B6C43F480435364094B5B6C03F4804335
:10265800FB60FB68002200214320FDF7AEFE43200B
:10266800FDF7C7FE00BF2837BD4680BD0000024009
:102678000038024080B582B000AF78607B681B7874
:10268800002B42D1234A7B68C2F8FC337B68214A7D
:10269800C3F820221F4B4FF0A0421A601D4B0622A0
:1026A8005A601C4B0222DA601A4B00221A61194B3D
:1026B80000225A61174B02229A61164B0022DA61F6
:1026C800144B00221A62134B00225A62114B00224B
:1026D800DA62104B00221A630E48FEF74FF80346E1
:1026E800002B04D04FF4A6710B48FFF771FE802130
:1026F8000848FEF71CFB402200210648FEF7CCFAEA
:10270800802201210348FEF7C7FA0023184608373C
:10271800BD4680BD241402201C2D000880B584B05D
:1027280000AF78600023BB730023FB737B68D3F88A
:1027380020321846FEF730F90346BB73BB7B032BE8
:1027480016D801A252F823F061270008672700086D
:102758006D270008732700080023FB730BE0022392
:10276800FB7308E00123FB7305E00223FB7302E01F
:102778000223FB7300BFFB7B18461037BD4680BDA4
:1027880080B584B000AF7860084611461A46034603
:10279800FB700B46BB7013463B800023BB730023C2
:1027A800FB737B68D3F82002BB783A88F978FEF788
:1027B80015F90346BB73BB7B032B17D801A252F84C
:1027C80023F000BFDD270008E3270008E9270008F9
:1027D800EF2700080023FB730BE00223FB7308E0DC
:1027E8000123FB7305E00223FB7302E00223FB7362
:1027F80000BFFB7B18461037BD4680BD80B584B04E
:1028080000AF78600B46FB700023BB730023FB739B
:102818007B68D3F82032FA7811461846FEF746F955
:102828000346BB73BB7B032B16D801A252F823F0D7
:10283800492800084F280008552800085B28000888
:102848000023FB730BE00223FB7308E00123FB73F7
:1028580005E00223FB7302E00223FB7300BFFB7B4E
:1028680018461037BD4680BD80B586B000AFF86009
:102878007A601A460B46FB7213463B810023BB75F0
:102888000023FB75FB68D3F820023B89F97A7A6844
:10289800FEF7B9F90346BB75BB7D032B16D801A219
:1028A80052F823F0BD280008C3280008C9280008EA
:1028B800CF2800080023FB750BE00223FB7508E016
:1028C8000123FB7505E00223FB7502E00223FB757B
:1028D80000BFFB7D18461837BD4680BD80B586B061
:1028E80000AFF8607A601A460B46FB7213463B81CC
:1028F8000023BB750023FB75FB68D3F820023B89D6
:10290800F97A7A68FEF71CF90346BB75BB7D032B81
:1029180016D801A252F823F03129000837290008F7
:102928003D290008432900080023FB750BE002231A
:10293800FB7508E00123FB7505E00223FB7502E047
:102948000223FB7500BFFB7D18461837BD4680BDC6
:1029580080B582B000AF78600B46FB707B68D3F817
:102968002032FA7811461846FEF734F9034618461D
:102978000837BD4680BD000080B483B000AF034671
:102988003960FB713B6812221A80034B18460C37DA
:10299800BD465DF8047B70474801022080B483B0CF
:1029A80000AF03463960FB713B6804221A80034B71
:1029B80018460C37BD465DF8047B70476801022055
:1029C80080B582B000AF03463960FB71FB79002BFC
:1029D80005D13A6807490848FFF7CCFB04E03A6894
:1029E80004490548FFF7C6FB024B18460837BD46A1
:1029F80080BD00BF24180220302D000880B582B0A9
:102A080000AF03463960FB713A6804490448FFF790
:102A1800B1FB024B18460837BD4680BD241802207A
:102A2800482D000880B582B000AF03463960FB71BD
:102A3800FB79002B05D13A6807490848FFF79AFB4C
:102A480004E03A6804490548FFF794FB024B18462E
:102A58000837BD4680BD00BF241802205C2D000841
:102A680080B582B000AF03463960FB71FB79002B5B
:102A780005D13A6807490848FFF77CFB04E03A6843
:102A880004490548FFF776FB024B18460837BD4650
:102A980080BD00BF241802206C2D000880B582B0CC
:102AA80000AF03463960FB71FB79002B05D13A680A
:102AB80007490848FFF75EFB04E03A6804490548FF
:102AC800FFF758FB024B18460837BD4680BD00BFCC
:102AD80024180220782D000880B483B000AF034684
:102AE8003960FB713B680C221A80034B18460C377F
:102AF800BD465DF8047B70475C01022070B50D4E41
:102B08000D4CA41BA4100025A54209D10B4E0C4C5A
:102B180000F0F4F8A41BA4100025A54205D170BD4F
:102B280056F8253098470135EEE756F8253098478E
:102B38000135F2E7882D0008882D0008882D000847
:102B48008C2D0008024B0146186800F059B800BFE8
:102B58006C010220024B0146186800F003B800BF60
:102B68006C01022038B50546002945D051F8043CCF
:102B78000C1F002BB8BFE41800F0B0F81F4A136808
:102B8800104633B9636014602846BDE8384000F049
:102B9800A6B8A3420CD921686218934204BF1A68E8
:102BA8005B68636004BF521822600460ECE7134658
:102BB8005A680AB1A242FAD919685818A0420BD12A
:102BC80020680144581882421960DDD110685268A3
:102BD8005A6001441960D7E702D90C232B60D3E768
:102BE800206821188A4204BF11685268626004BFD5
:102BF800091821605C60C7E738BD00BFF0010220FA
:102C080070B5CD1C25F0030508350C2D38BF0C25F3
:102C1800002D064601DBA94203D90C2333600020AE
:102C280070BD00F05BF8234A1468214691B9224C24
:102C380023681BB9304600F041F820602946304629
:102C480000F03CF8431C26D10C233360304600F0DA
:102C580046F8E4E70B685B1B1AD40B2B0FD90B6003
:102C6800CD50CC18304600F03AF804F10B00231D83
:102C780020F00700C31A1BD05A42E25070BD8C42A4
:102C88000DBF63684B686360136018BF0C46E9E7C3
:102C98000C464968CAE7C41C24F00304A04205D0C6
:102CA800211A304600F00AF80130CDD02560D9E766
:102CB80070BD00BFF0010220F401022038B5064CB7
:102CC800002305460846236000F00AF8431C02D199
:102CD800236803B12B6038BD241A0220704770475F
:102CE800044B1968024609B9034919601868024477
:102CF8001A607047F8010220281A0220F8B500BFB0
:102D0800F8BC08BC9E467047F8B500BFF8BC08BCC4
:042D18009E4670471C
:102D1C002E2E5C7372635C757362645F636F6E6698
:102D2C002E63000053544D33322056697274756112
:102D3C006C20436F6D506F727400000053544D69DA
:102D4C0063726F656C656374726F6E696373000098
:102D5C003030303030303030303031410000000015
:102D6C0043444320436F6E6669670000434443202D
:0C2D7C00496E74657266616365000000BA
:042D88001D02000820
:042D8C00F901000841
:102D9000010000000A0600020000004001000000DF
:102DA000B11C0008851D0008E11D0008000000009E
:102DB0002B1F00089D1E0008D51E00080000000003
:102DC00000000000000000009D1F00087D1F00089B
:102DD000BD1F0008DD1F000809024300020100C0FA
:102DE000320904000001020201000524001001055F
:102DF00024010001042402020524060001070582C3
:102E00000308001009040100020A00000007050180
:102E100002000200070581020002000009024300CF
:102E2000020100C032090400000102020100052471
:102E300000100105240100010424020205240600FB
:102E4000010705820308001009040100020A0000BE
:102E50000007050102400000070581024000000054
:102E600009074300020104C0320904000001020204
:102E700001000524001001052401000104240202C0
:102E80000524060001070582030800FF090401006C
:102E9000020A000000070501024000000705810248
:102EA000400000000024F400DD240008052500088F
:102EB00015250008D125000881290008A52900084A
:102EC000052A0008C92900082D2A0008692A0008D7
:102ED000A52A0008E12A00081201010202020040AE
:102EE000830440570002010203010000050F0C009B
:102EF000010710020200000004030904700102200F
:102F000000000000000000000000000000000000C1
:102F100000000000000000000000000000000000B1
:102F200000000000000000000000000000000000A1
:102F30000000000000000000000000000000000091
:102F40000000000000000000000000000000000081
:102F50000000000000000000000000000000000071
:04000005080023E5E7
:00000001FF
